:020000041000EA
:1000000000B5324B212058609868022188439860DF
:10001000D860186158612E4B002199600221596106
:100020000121F02299502B49196001219960352056
:1000300000F044F80222904214D00621196600F024
:1000400034F8196E01211966002018661A6600F04E
:100050002CF8196E196E196E052000F02FF8012189
:100060000842F9D1002199601B49196000215960AB
:100070001A491B48016001219960EB211966A021F2
:10008000196600F012F800219960164914480160C1
:100090000121996001BC002800D000471248134993
:1000A000086003C880F30888084703B5996A0420EC
:1000B0000142FBD001200142F8D103BD02B5186610
:1000C0001866FFF7F2FF186E186E02BD00000240BE
:1000D000000000180000070000035F00212200005C
:1000E000F4000018222000A00001001008ED00E03C
:1000F00000000000000000000000000074B24E7A12
:1001000000200420F7010010C3010010C5010010F9
:10011000C1010010C1010010C1010010C101001097
:10012000C1010010C1010010C1010010C701001081
:10013000C1010010C1010010C9010010CB01001065
:10014000CD010010CD010010CD010010CD01001037
:10015000CD010010CD010010CD010010CD01001027
:10016000CD010010CD010010CD010010CD01001017
:10017000CD010010CD010010CD010010CD01001007
:10018000CD010010CD010010CD010010CD010010F7
:10019000CD010010CD010010CD010010CD010010E7
:1001A000CD010010CD010010CD010010CD010010D7
:1001B000CD010010CD010010CD010010CD010010C7
:1001C00000BE00BE00BE00BE00BE00BEEFF3058054
:1001D000103800BEF2EB8871EC5600101C5700106E
:1001E0003802001090A31AE71E481F49086006C88D
:1001F00081F3088810471D480068002801D019487D
:10020000F3E70DA40ECC002902D000F012F8F9E7B4
:100210001749184A002000E001C19142FCD116495B
:100220008847164988471649884700BEFDE701C937
:1002300001C29A42FBD370471C570010C000002037
:1002400078100020D4660010000004200000042074
:10025000D4660010001004200010042000000000EC
:10026000704700000000000008ED00E0000000D032
:100270007810002000210020F9210010190600103C
:10028000F1210010F8B5C04606480749091A8B103D
:10029000C90FC91810B5491003D0044B002B00D06A
:1002A000984710BD78100020781000200000000052
:1002B000054B10B5002B03D00449054800E000BFF2
:1002C000FFF7E2FF10BDC04600000000941F0020B1
:1002D000B44F00101023F0B5C646D026984601272B
:1002E00000B5204C3606A04420CC280000F0AAFA25
:1002F0003B00AB407362B3614445F5D11023D02677
:1003000098460127184D3606A84410CD200000F06D
:1003100099FA3B00A340002201212000B36200F0C3
:100320007DFA4545F1D1152000F08CFA80239B031E
:1003300073620B20B36100F085FA80231B017362A6
:100340000C20B36100F07EFA80235B0173620D2004
:10035000B36100F077FA80239B017362B36180BCC4
:10036000B846F0BDFC530010EC53001070B5D0241B
:100370008025102624066D00A56163681E4200D109
:100380007BE0D02508242D066B681C4200D17FE05D
:10039000D02504242D066B681C4200D185E0D025B1
:1003A00002242D066B681C4200D18BE0D0248023F0
:1003B000102524065B006361803BA36163681D42D6
:1003C00000D18CE0D02508242D066B681C4200D19A
:1003D0009BE0D02504242D066B681C4200D1A0E0D0
:1003E000D02502242D066B681C4200D1A5E0D02444
:1003F0008023102524066361403BA36163681D428E
:1004000000D1A6E0D02508242D066B681C4200D13F
:10041000ABE0D02504242D066B681C4200D1B0E06F
:10042000D02502242D066B681C4200D1B5E0D024F3
:100430004023102524066361203BA36163681D42AD
:1004400000D1B6E0D02508242D066B681C4200D1EF
:10045000BBE0D02504242D066B681C4200D1C0E00F
:10046000D02502242D066B681C4200D1C5E0D023A4
:10047000202200201B065A6170BD322001F050F985
:1004800063681E4200D07CE700201021002431E088
:10049000322001F045F96B681C4200D078E78025D6
:1004A0000020082101246D0024E0322001F038F9F9
:1004B0006B681C4200D072E78025002004210224D2
:1004C0006D0017E0322001F02BF96B681C4200D060
:1004D0006CE780250020022103246D000AE0322011
:1004E00001F01EF963681D4200D06BE780250120F2
:1004F00010210024D022120653681942FCD0454B2B
:1005000080001B18185D5561B6E7322001F008F92C
:100510006B681C4200D05CE7802501200821012483
:10052000E8E7322001F0FCF86B681C4200D057E786
:100530008025012004210224DCE7322001F0F0F8BC
:100540006B681C4200D052E7802501200221032461
:10055000D0E7322001F0E4F863681D4200D051E793
:100560004025022010210024C4E7322001F0D8F8F1
:100570006B681C4200D04CE7402502200821012472
:10058000B8E7322001F0CCF86B681C4200D047E796
:100590004025022004210224ACE7322001F0C0F8FB
:1005A0006B681C4200D042E7402502200221032450
:1005B000A0E7322001F0B4F863681D4200D041E7A3
:1005C000202503201021002494E7322001F0A8F810
:1005D0006B681C4200D03CE7202503200821012441
:1005E00088E7322001F09CF86B681C4200D037E7A6
:1005F00020250320042102247CE7322001F090F81A
:100600006B681C4200D032E720250320022103241E
:1006100070E7C046DC530010F0B5DE46574645464D
:100620004E46D024E0B5802785B0634801F038FFFE
:1006300001F0E2FEFFF74EFE604801F031FF604836
:1006400001F02EFF5F4B604D9B46604B24069A469F
:100650005F4BBF0399465F4B98465F4B00935F4BE0
:1006600001935F4B02935F4B0393FFF77FFE2A38A2
:10067000C0B21A280DD880002B589F468026FA2039
:1006800036018000666101F04BF85846A66101F022
:1006900007FF642001F044F8E7E78026FA203601DE
:1006A0006661800001F03CF8A6618026FA207601A0
:1006B0006661800001F034F8A6618026FA20B60158
:1006C0006661800001F02CF80298A66101F0E8FE56
:1006D000642001F025F8C8E78026FA20360166611B
:1006E000800001F01DF8A6618026FA20B60166613F
:1006F000800001F015F80198A66101F0D1FE642098
:1007000001F00EF8B1E78026FA20760166618000DC
:1007100001F006F8A6618026FA20B6016661800025
:1007200000F0FEFF0098A66101F0BAFE642000F020
:10073000F7FF9AE78026FA2036016661800000F014
:10074000EFFFA6618026FA2076016661800000F046
:10075000E7FF4046A66101F0A3FE642000F0E0FF41
:1007600083E78026FA20B6016661800000F0D8FF9A
:100770004846A66101F094FE642000F0D1FF74E7C2
:100780008026FA2076016661800000F0C9FF50469D
:10079000A66101F085FE642000F0C2FF65E7FA2043
:1007A0006761800000F0BCFF0398A76101F078FE4C
:1007B000642000F0B5FF58E7B44F0010F44F00106C
:1007C0000C500010F0500010705300100451001035
:1007D00018510010305100104C5100106C51001095
:1007E0008C510010A4510010094A83009A1810B5CA
:1007F00014684022544080322240064CC000A44677
:1008000063441A60044B9C466044416010BDC0467E
:1008100004C0014004D0014000400140074B80006B
:10082000C3181B68C90092000A435A400C231340A6
:10083000034A9446604403607047C04604C00140C8
:1008400004D001400123D0228340120693629361B9
:10085000094A83009A1811684022514080320A40A8
:100860000649C0008C4663441A60054B9C4605232C
:10087000604443607047C04604C0014004D001405A
:10088000004001408023DB051868000F7047C04618
:100890000FB400B5084883B001F002FE049B002BA2
:1008A00007D005A91800019101F088FC034801F068
:1008B000F7FD012001F09AFCB4510010EC5000103B
:1008C00070B5EFF3108C72B60D4D2B68002BFCD079
:1008D000BFF35F8F0724CB08C618C05C01230C4010
:1008E000A3401C000440034207D118433070BFF3FB
:1008F0005F8F2C608CF3108870BD1000FFF7C8FF6D
:100900002C0100D0F8B54746CE46884680B5EFF3B7
:10091000108C72B6214D2C68002CFCD0BFF35F8F79
:100920009A422CD8D4080727055D061901241740E0
:10093000BC402C421FD007210127894609E0D4087A
:10094000055D06194C4639001440A1400C002942AF
:1009500011D001329342F2D201204042BFF35F8FA7
:1009600000220E4B1A608CF3108800280FDBC0BCED
:10097000B946B046F8BD254310003570EEE7BFF329
:100980005F8F00232B608CF3108801204042434688
:10099000002BECD00898FFF77BFFC0462C0100D05D
:1009A000044A1078431CDBB2172B00D910231370B4
:1009B0007047C046980F002010B5064B064C82B019
:1009C0000100009318221F232000FFF79BFF02B0B5
:1009D00010BDC046C4510010241B00200021044B50
:1009E000044ABFF35F8F02C39342FAD17047C046F7
:1009F000000100D0800100D0054B064A1360064A72
:100A0000136053609360D3601361536193617047C7
:100A10008080808000E400E004E400E01F231840B0
:100A20001E3B8340002905D0C021044A4900535091
:100A300013607047802201498B50FAE700E100E023
:100A400001228240034B1B6813405A1E9341D8B2C7
:100A50007047C04600E100E001238340014A136073
:100A60007047C04600E200E0084B10309B688000F1
:100A7000C358002B07D0064A00209B1A2F229A4207
:100A80004041C0B270470020FCE7C04600ED00E0E6
:100A90009C0F002070B50D00EFF3108672B60F4A60
:100AA0001368002BFCD0BFF35F8F0D4B10309B6899
:100AB00084001B590B4A934203D09D4201D001F0A0
:100AC000A3F9074B9B681D51BFF35F8FBFF35F8F87
:100AD0000022024B1A6086F3108870BD240100D0FA
:100AE00000ED00E0CD010010F0B557464E46DE4661
:100AF0004546E0B585B0060000911700EFF3108B76
:100B000072B66A4A1368002BFCD0BFF35F8F0025D2
:100B1000674B5D579A46002D00DAA9E06B00654CE3
:100B200001935B199B009846A146C1444B4652462F
:100B30009B7910361370604BB6009B6899590B1B5C
:100B40002F2B33D95D4B994200D0ACE0019B42463C
:100B50009C465B4B6544AD0063535A4B0232A2186E
:100B6000043B9B1A1B05584A5B0D651913436B80A8
:100B7000564B0121AB80FF23AB71009BEF71AB6043
:100B80004B460B4319004C4B9B689951BFF35F8F49
:100B9000BFF35F8F0022454B1A608BF3108805B0BE
:100BA000F0BCBB46B246A946A046F0BD01200A00F3
:100BB0008243D3798C46BB4231D845461300444921
:100BC0001B1B5B415943090D3D4B63533D4B0235A4
:100BD0006519043B5B1B1B053B4D5B0D2B43AA4674
:100BE0004D466B800425AC465546E044131F4444F3
:100BF0001B1B1B055B0D1D434B46997100999D8086
:100C000099604946DF71334B01431360BBE75800DD
:100C1000C01880002018C179B9422FD902000623DC
:100C2000D356002BF3DA02932B4B61460393131D2B
:100C30009A4604235B429C46E14450464B461B1AAD
:100C40001B055B0D9C46204B9571984663464046BC
:100C500003439380019B5A199200039BA418A3801D
:100C6000029B1C4AA371009B2260E771A3608AE784
:100C700001F0CAF8002553465D574FE7908802936C
:100C80004005131D9A46031561469C464046D444D0
:100C9000634604302018181AE0230005400D1B029B
:100CA00018430390C5E701F0AFF84FE7240100D0E7
:100CB000F92000209C0F002000ED00E0CD01001085
:100CC00000A1FFFFCC0F002000E0FFFF01BDFFFFF0
:100CD000AAAA00000148804701BD0000F0B5DE4629
:100CE00057464E464546E0B50C0083B0EFF31088FA
:100CF00072B6634A1368002BFCD0BFF35F8F614B61
:100D000061499A68030010339F00D55900938D42C2
:100D100043D0A54254D05D4EAA1B2F2A3DD85C4B30
:100D20009C461B689A4601231A0099468240534606
:100D300013401F2201934B46024093409A46802263
:100D4000634650469850BFF35F8FEFF305839B4691
:100D5000002B37D0009B5B4501D001F055F82A00ED
:100D60004B469A439068844208D177E04B005B1869
:100D70009B00F3189868844236D01A000621515619
:100D80000029F3DA844255D0019B002B27D0C022E2
:100D900051463F4B5200995019603A4B9B68DD51C8
:100DA000BFF35F8FBFF35F8F0022354B1A6088F36C
:100DB000108803B0F0BCBB46B246A946A046F0BDC1
:100DC0000D00EAE72A004B469A4390688442D5D149
:100DD00006201056130000280ADA0D0032E08023A6
:100DE00051462B4AD150D8E706201856002822DB5E
:100DF00042001118890074188946A1689960E17948
:100E0000D971062161569971002925DBA488F11A50
:100E1000640524154C440919E0240905490D2402F0
:100E20002143998013181B4A9B001178F31899717C
:100E30001070A9E713005946002914D1FF319171B0
:100E40001549918013490A789A71144A9B1B5B419A
:100E50005A43120D0A7097E71149E2E7062010562F
:100E600013000028C4DA0F4A0F49D21A083A500278
:100E7000400D014399800D4952080A43DA8083E707
:100E8000240100D000ED00E0CD0100109C0F0020F7
:100E900000E100E0F920002001BDFFFFAAAA000048
:100EA00001BD0000D60F002000F0FFFF00F8FFFF9B
:100EB00070B501240443EFF30581EFF3108C72B693
:100EC000214A1368002BFCD0BFF35F8F1F4B050036
:100ED0001F4AED1A6D416A43120D1E4D8900AE681E
:100EE00052B27658A6421CD00621595691421CD0C7
:100EF00012215956914222D01E215956914220D09A
:100F00002A2159560324914210D0134B19781A7094
:100F10008171BFF35F8F00220B4B1A608CF3108836
:100F200070BDAB680D4C5C50EFE7002461000919FF
:100F300089005B18FF21997109499980E5E701242F
:100F4000F4E70224F2E7C046240100D09C0F002001
:100F5000AAAA000000ED00E0F9200020CD01001059
:100F600001BDFFFF10B5084B084C82B00100009393
:100F7000002205232000FFF7C5FC002801DB1F230A
:100F8000181A02B010BDC046E0510010FD2000202C
:100F9000024B9C4661448900016070474000003468
:100FA00070B5114C114DAC420FD2FF262368002BB7
:100FB0000CD0FFF7F5FC01002000FFF7E9FFA68049
:100FC000BFF35F8F0834AC42F0D370BDFFF7E8FC8D
:100FD00001002000FFF7DCFF2671BFF35F8F0834AC
:100FE000AC42E3D3F1E7C046701000207810002037
:100FF00010B50400FFF7D4FC01002000FFF7C8FF84
:10100000FF232371BFF35F8F10BDC04610B50400EE
:101010000120FFF7D1FC034BC3189B002360BFF3F3
:101020005F8F10BD40000034034B9C466144890033
:101030000160BFF35F8F7047400000340A4B1968AE
:10104000EFF3108072B60A68002AFCD0BFF35F8FFE
:101050001B68BFF35F8F00221A6080F3108840BFC7
:10106000002000217047C046D0200020F0B5DE46A9
:1010700057464E464546E0B583B0EFF3058203235D
:101080001340B54A990052580091904601229A4067
:10109000B24B93461A60B24B01932EE043469B88B5
:1010A0001BB2002B00DB99E043469B79002B00D05C
:1010B000DDE0434608241C5F002C00DA06E14346CD
:1010C0005A6963001B19DB00D3189D68DC686B1C30
:1010D00000D107E1A34B00999C4661449A6A0B69D1
:1010E000A81A9B1A984200D20D619E4800F0AEFBF0
:1010F0008C4200DDEAE000D126E15B46994843637B
:10110000434608229B5E9946002BC7DB4246526944
:101110005B0092464B44DB009A4453469E68DF686E
:1011200000F094FB8F42B9DC00D100E1002F00DA1F
:10113000E1E05246534654691B69019A934200D13B
:10114000D4E0414652460820085E5288000421003F
:101150001043984704000D0023002B4300D1CAE040
:10116000002D00DBE7E030003900001BA9415346A9
:101170009860D96000229A5E002A8FDB43465D6941
:1011800053009C18E4002C19A768E4688C4200DD29
:1011900084E702D1874200D980E74646328108368B
:1011A0000DE08C4200D1D3E01E000023F25E002A45
:1011B0000ADB53009C18E4002C19A768E4689B180C
:1011C000DB00EB188C42ECDD53461A804B46338033
:1011D00043469B881BB2002B00DA65E743461A6939
:1011E000EFF3108172B61368002BFCD0BFF35F8F52
:1011F00043469E88012342465B42938036B2136980
:10120000BFF35F8F00221A6081F31088002E00DA8E
:101210004AE743465D69083342469C467700BF195A
:10122000FF00EF19BB68604698460823D15E9246DE
:10123000FC68002907DA0EE0A2424FD01800002314
:10124000C15E002906DB4B005B18DB00EB18DA6897
:10125000A242F1DD524606800023FE5E3980002E58
:10126000DCDA904643469B79002B00D121E700232E
:1012700042469371434646460821595E08364B1C48
:1012800024D047468946556902E006004B1C18D019
:101290004B005B18DB00E8180A008C46E95E4388C7
:1012A0001BB2002BF1DA01235B42DC178360C460C0
:1012B0004A4503D031803B8903803A81E1464B1C8B
:1012C000E6D14C46B846002C00DBF8E640BF03B040
:1012D000F0BCBB46B246A946A046F0BD9A6842455E
:1012E000ACD9B7E7631C00D0F4E6FEE62000236922
:1012F0009847002825D1534642461B88138112691E
:10130000EFF3108372B611680029FCD0BFF35F8F32
:101310004246514652880A804246494651801269E7
:10132000BFF35F8F0021116083F31088B6E6864219
:1013300000D8FBE6B2E60B4800F088FA00196941D4
:1013400015E76568246807E7854200D8D5E6BDE75C
:10135000874200D828E737E7B41F00203C700540DB
:101360006D1000100040054070B52E4C2569002D11
:1013700004D00A212C48FFF70BFE70BD2B4E032131
:10138000300000F059FAE660FFF70AFB284B032211
:101390009C46D02322701B061B6801216370254BDD
:1013A0006044A3600F238000206102206380636992
:1013B0004942A18019800231198647311D83585254
:1013C00018315A5275325C3999521832013199529A
:1013D00018320131995218320131995208351832B8
:1013E0009D520231183299521832013199521832F5
:1013F0000131995218320131995218320131995202
:101400001832013199520C4B0C49DC6001303562C5
:10141000FFF740FB01210320FFF700FB084B1D6095
:10142000A7E7C046E40F0020D02000200040054080
:1014300040000034FFFF1000B41F00206D100010AA
:101440003860054000487047E40F0020F8B51F00E1
:1014500008AB1B7804001600002B08D100F0FEF941
:1014600032003B00121A8B41002B00DA53E0226954
:10147000EFF3108072B61368002BFCD0BFF35F8FC0
:101480000223E15E63694A005218D2009B180029CA
:1014900037DB1A8862802269BFF35F8F00251560F1
:1014A00080F31088069A9E60DF601A61079A5A617D
:1014B0005A8801325204520C101C002A1FD082B2EA
:1014C0005880080410432669EFF3108772B632681B
:1014D000002AFCD0BFF35F8FA2881A80A180236905
:1014E000BFF35F8F00221A6087F310880B492378BF
:1014F0008C4601329A40E36863441A60F8BD0120CB
:10150000DDE72369BFF35F8F00221A6080F3108844
:1015100001204042F2E70020F0E7C0463C200000F6
:1015200070B501000469EFF3108C72B620680028D2
:10153000FCD0BFF35F8F02200D5E4C69680040193C
:10154000C0002418002D37DB208848800869BFF3CD
:101550005F8F002606608CF31088E3606388049830
:10156000013320615B0405985B0CA26060611A1C6A
:10157000002B1FD093B22804628018430A69EFF34E
:10158000108C72B61368002BFCD0BFF35F8F8B8872
:1015900023808D800B69BFF35F8F00221A608CF36C
:1015A00010880B7801329A40CB6808498C46634416
:1015B0001A6070BD0122DDE70B69BFF35F8F002267
:1015C0001A608CF3108801204042F2E73C200000B2
:1015D00010B543890A1493421ADD53009B184269DF
:1015E000DB00D3180469EFF3108C72B62268002A6E
:1015F000FCD0BFF35F8F5A88090494B2090C8A4269
:1016000008D00369BFF35F8F00221A608CF3108843
:10161000002010BD8022120214435C800123026965
:101620008371BFF35F8F002111608CF31088044930
:1016300002788C469340C268012062441360E8E758
:101640003C20000040787047F0B504000D000626ED
:101650007642F717C64636196F4100B582B08F4201
:1016600014D811D000F0FAF832003B00121A8B4166
:10167000002B17DC002B47D02000290000F02CF9AC
:1016800002B080BCB846F0BD8642EBD900220023F0
:1016900016001F0000F0E2F832003B00121A8B41E6
:1016A000002BE7DD00F0DAF832003B00121A8B4124
:1016B000002B0ADB00230193154B320000931548E1
:1016C0003B00FFF72DFF0028D6DB00239C46B046E9
:1016D000114A124E736A9F4204D8B16A8845CBD929
:1016E0009F42C9D11168EFF3108072B60B68002BCE
:1016F000FCD0BFF35F8F1368BFF35F8F6146196043
:1017000080F3108820BFE5E7002AB5D0CAE7C046BD
:101710003D100010E40F0020D020002000400540C4
:1017200070B5060000F09AF8FA2204000D000023BC
:1017300030000021920000F0D7FC8023001969419D
:101740001B06994202D3012002494042FFF77CFF69
:1017500070BDC046FFFFFF7FF0B5CE46474680B55F
:1017600004000D0083B0EFF305878846002F3ED1BB
:101770002E4EA1463378F06804339B00816A1B58D3
:10178000601A5B1A98420ED320BF294900204B6A89
:10179000AB4203D38A6A0130944231D803B0C0BC53
:1017A000B946B046F0BD00F059F822002B00121ADD
:1017B0008B41002B2FDB1F4B2200009330002B00AE
:1017C0000197FFF7ADFE011E25DD194B5A6AAA42AB
:1017D0001BD220BF3000FFF7FBFE154A0020536AE2
:1017E0004345DBD3926A01309145D7D908E01049CF
:1017F00000204B6AAB42D1D38A6A0130A242CDD2DB
:101800005B1B5A1E9341D8B2C8E79B6A9C42E1D940
:10181000AA42DFD1DDE7064A0020536A4345BDD323
:10182000926A01209145B9D9EAE7C046E40F002049
:10183000004005403D10001010B5024A0248FFF775
:101840003FF810BDFC510010281B00200300416A26
:101850000A00986A596A8A42FAD17047034B596A5A
:101860000A00986A596A9142FAD1704700400540CF
:1018700070B504000D00174A536A1900966A536A3E
:101880008B42FAD13000190024184D41AB4216D8D2
:1018900013D0104A2B00526A954203D90D494A6A67
:1018A0009A42FCD39A4207D10A4A02E0516A99420D
:1018B00002D1916AA142F9D370BDA642E9D9054B84
:1018C0005B6A1C005A1CEFD0012301246442E51717
:1018D0005B42E3E700400540064A536A9942FCD860
:1018E00007D1044B02E05A6A914202D19A6A8242BD
:1018F000F9D3704700400540F8B5040006200D00FC
:1019000000F078F9002844D0374B3849E3185A1EC4
:1019100093418022120494465B429B0D344A9B05FE
:1019200063441360334A136018000A689043FBD184
:101930002D4B314AE31859424B4180215B0049004D
:101940000620995200F056F92900C00000F03AFB39
:101950000130C3091ED1402701226262A362266BB7
:10196000F30722D4E36A254B0620E51800232B60F9
:10197000266300F03FF93900800000F023FB70235C
:10198000E26A5A400E3313402B601D4B236303233E
:10199000A364F8BD1B4A93421ED900231A4A1B4F69
:1019A0006262A362266BF307DCD5194B144AE31875
:1019B0001A60656AA36A0620AD01ED1800F01AF9F5
:1019C000144900F0FFFAAD020100280000F0FAFA15
:1019D0000021FFF74DFFC5E74006800E9F011A006A
:1019E0003F180300B9E7C0460080FCBF08C00040B4
:1019F00000E0004000F00040DC2000202C1000003F
:101A000001030000FEFF0000FFFF0000C0FF3F00D9
:101A1000303000004E0E0000F8B5DE464E46574608
:101A20004546E0B58B4605000A991800160000F0FF
:101A3000C9FA0A9B6C001F02324B64199C46A40031
:101A40006444636881469F4200D967602B1FDBB204
:101A50009846012B30D9C02380229B01E318120144
:101A60001A60294BAD0059599A4600291BD17301C0
:101A7000E026226853401E40802342465B01E31863
:101A80001E60012A30D9802380229B01E3181201B5
:101A90001A6053464A4667605A51F0BCBB46B2468C
:101AA000A946A046F8BD586900F08CFA0130430001
:101AB0001B18033BFDD2DAE75B46012BCBD1C023D9
:101AC00003229B01E3181A60023AA3681A42FCD071
:101AD0007301E0262268AD0053401E4080230A4A6D
:101AE0005B019246E3181E605A462168514003226A
:101AF0000A401A6001225B469A40A3681A42FCD051
:101B0000C1E7C046008000402C1B0020F0B54646CF
:101B10004F46D646C0B51F00344B44009C4624189F
:101B2000A4006444636888461600FF2B02D8802313
:101B30005B006360031FDBB29A46012B30D9C023E0
:101B400080229B01E31812011A60294B8500595924
:101B5000994600291BD17301E026226853401E409C
:101B6000802352465B01E3181E60012A30D980238E
:101B700080229B01E31812011A6080235B006360DE
:101B80004B465F51E0BCBA46B146A846F0BD586925
:101B900000F018FA013043001B18033BFDD2DAE7CE
:101BA0004346012BCBD1C02303229B01E3181A60CB
:101BB000023AA3681A42FCD07301E026226885002D
:101BC00053401E4080230A4A5B019146E3181E6081
:101BD00042462168514003220A401A6001234246CE
:101BE0009340A2681342FCD0C1E7C0460080004089
:101BF0002C1B0020014B8000C05870472C1B00207C
:101C0000F8B5040021481E0017000D0000F0DAF9B5
:101C10000100380000F0D6F9069B36041B031E4372
:101C20002368002B20DB1A4B1A49E3185A1E9341F4
:101C30008022920194465B421B0B174A1B036344AC
:101C40001360164A13601F000A689743FBD1144BB8
:101C50002560E2182123A06013602368002BFCDAC2
:101C60000823E6601360F8BD3F2322681340AB42AF
:101C7000D9D1A3681B051B0D8342D4D1EE22E368A2
:101C8000D2021340B342CED1EDE7C046001BB700ED
:101C90000040FDBF08C0004000E0004000F00040F0
:101CA0000430000010B580241C4BE4051C600028A3
:101CB0001AD001231A4C18431A4BDC611A4C4440C9
:101CC0001C62596298628021144BC905196017483B
:101CD00017490860E021C9041960002A07D1802251
:101CE000144B12061A6010BD0E4BD861EBE753017E
:101CF0009B1A9B009A18802312015B049A4209D216
:101D000013000D490B60074B5A608022094BD20526
:101D10001A60E8E7094B1A00F3E7C04600B0054037
:101D2000D3C007B0008005402D3FF84FFCFF0100F5
:101D30000820014000A005408C1F0020FFFFFF008D
:101D40008023024A9B000B43D3627047008005400A
:101D5000142310B50100188804331B88984710BD60
:101D6000162310B50100188802331B88984710BD50
:101D7000F8B54746CE4680B50F1E19D014239946B4
:101D8000043304000025012698464B461888434634
:101D900021681B88984701C4431E98410135404281
:101DA0000640AF42F1D13000C0BCB946B046F8BDE4
:101DB0000126F8E7142370B50400188804331B8843
:101DC0000D000549984703000020002C01DB01307D
:101DD000A04029009847C04655420000AA23064A61
:101DE0001B0113602F230549D360054B196053680D
:101DF000002BFCDA7047C0460040024000B0FA00F9
:101E0000006002407047C04610B50148FEF740FD33
:101E10002052001070B5074D074EB54209D200247C
:101E2000013E761BB60808CD984723000134B34223
:101E3000F9D170BD704F0010AC4F0010054B064A31
:101E400006491A60064A074B1A6010000B6898434F
:101E5000FBD1704700E00040BFCDFBFE08C0004052
:101E6000FE7F3C0000F00040044BDB6C002B03D1F4
:101E70008022034BD2021A607047C0460000115006
:101E80004C201150044A054B1A60054A1368DB01C7
:101E90008033FBD17047C046FFFFFF0100F00040D8
:101EA00008C000404022034B9A675A671A67DA66F7
:101EB0007047C04600F0014010B5FEF78FFD10BD21
:101EC00070B5044D044CA968C022200000F068F9E8
:101ED000AC6070BD00ED00E000000020002310B5F4
:101EE000294C82B0A367FFF779FF0122274B1A60C4
:101EF000636C012BFCD10322254B1A60224A936BA1
:101F0000012BFCD1013300930121224A22480433E2
:101F1000FFF776FE052301210093204A2048FFF7B2
:101F20006FFE0022022104201E4BFFF7EFFD00226E
:101F3000012105201C4BFFF7E9FD002200210720AD
:101F40001A4BFFF7E3FD002200210820174BFFF793
:101F5000DDFD8023DB000093002200210920134BCC
:101F6000FFF75AFD0022104B00210620FFF7CEFD9F
:101F70000420FFF73FFE0E4900F024F80100002086
:101F8000FFF7DEFE02B010BD008000403CB0004014
:101F900030B00040002F685900800240008C864716
:101FA00000C00240001BB70040597307006CDC0200
:101FB00040420F0001480421014B18470010002047
:101FC000711D0010114A936F9B0813D21066516661
:101FD000002905D0FFE7FFE7FFE7516F106F70475B
:101FE00004B5002801D00020C04302F079FF002191
:101FF00004BDC046F0B5146E556E576F166FFFF7EF
:10200000E5FF1466556657671667F0BD000000D0FF
:1020100010B50148FEF73CFC2C520010132370B59C
:102020001D78012D19D014DD1D48FFF799FE06001B
:102030001C48FFF795FE1C4C80223100200000F068
:10204000AFF8022D06D01948FFF782FE184B186032
:1020500070BD154C174BA364F5E7174B124C23606A
:102060006360A360E36023616361A361E361236252
:102070006362A362E36223636363A363E363236432
:102080006364A364E36423656365A365E365236612
:102090006366A366E36623676367A367E367D9E7BD
:1020A0005344000053460000001200204C3300004F
:1020B000CC1F0020BD2000101120001007B5604685
:1020C00001880A0A0230DF2AFAD1C9B2820804D391
:1020D000028840880004104300E00068014A505024
:1020E000039007BD0012002051434343C9188C469A
:1020F000110C83B24B4310B4040C614392B280B212
:10210000504362431C041B0C001910BC59411304BA
:10211000120CC018514161447047000010B50148CD
:10212000FEF7B6FBF4520010132310B510481C78CC
:10213000FFF716FE0100012C0AD003DD80220D48B6
:1021400000F02EF80C48FFF703FE0C4B186010BD92
:10215000084C5422200000F023F822000849803265
:102160002368002B00D1216004349442F8D1E9E7C0
:1021700053460000D01F00204C330000CC1F00202D
:102180001D21001001480421014B184710100020A8
:10219000711D0010014B1B68184700001010002033
:1021A000014B5B68184700001010002010B5002894
:1021B00000D110BD00F028F9FBE7C04610B5094A70
:1021C0000300146884B0002C08D001220091064856
:1021D000524203A9A047012004B010BD00F060F9ED
:1021E0000020F9E7881F0020AD21001000BEFDE7A8
:1021F00010B5FFF7FBFFC04670B5FFF70BFE074DAC
:10220000074EB54209D20024013E761BB60808CD20
:10221000984723000134B342F9D170BDAC4F001090
:10222000B44F0010030010B5080011001B68984758
:1022300010BDC046F0B5C64600B5437D07000D0091
:102240001600002B38D0002A2EDD00216A1E904691
:102250006A5C037D4C1C00200A2A0CD0A64216D0D2
:1022600043461B5D21000D3B5A4253416A5CDBB281
:102270004C1C0A2AF2D1002BF0D1884217DB022134
:1022800010483B689847A64207D02000E8E78642FE
:1022900003DD311A3B6828189847AD19013D2B78AA
:1022A0000D3B5A4253413B7580BCB846F0BD091AFC
:1022B0003B6828189847E2E7036811002800984710
:1022C000F2E7C0466C540010F0B5DE4657464E4665
:1022D0004546E0B585B017001C0006000D00FFF76D
:1022E000BDFA0023314A12184B41802109068B4266
:1022F00002D301222E4B52422E4908008A4602F098
:102300000FFE01906B1C03D1300002F0A9FD050007
:10231000002C26D0284B9846284B1C68002C15D042
:10232000002F21D1264F02E02469002C0ED0236813
:10233000002BF9D03B68002B01D09C42F4D1200047
:102340002A003100C0472469002CF0D1019B002BEA
:1023500028D1280005B0F0BCBB46B246A946A0462D
:10236000F0BD184B9846D7E7154B994602ABDF1DD9
:102370000A239B4602E02469002CE7D02368002B47
:10238000F9D04B461B68002B01D0A342F3D12A00A1
:1023900031002000C0475B460122390020003B701D
:1023A000C047E8E7504602F093FDD2E740420F00F5
:1023B000FFFFFF7F70100020352200107C1B0020E3
:1023C000841B0020252200100A4A1368002B05D127
:1023D0000CE01A001B691032002B07D09842F8D18C
:1023E000002902D103691360016170470029FCD004
:1023F0001060FAE77C1B002010B500F03DF900F0FA
:1024000085FB012010BDC046F0B5CE46474680B5DD
:1024100083B06B460600DD1D2870FFF71FFA00230E
:102420001A4A12184B41802109068B4202D301221D
:10243000174B524217490800884602F071FD164BAF
:1024400081461C68002C14D0144F02E02469002C33
:102450000FD02368002BF9D03B68002B01D09C42A1
:10246000F4D1200001222900FFF7E4FE2469002CAA
:10247000EFD14B46002B05D1300003B0C0BCB946AC
:10248000B046F0BD404602F023FDF5E740420F00A4
:10249000FFFFFF7F701000207C1B0020841B0020AA
:1024A00070B5040002F0DCFC0123010005000122EC
:1024B0002000FFF709FF084B1C68002C06D063685A
:1024C000002B05D098472469002CF8D1280070BD56
:1024D0002469002CF3D1F9E77C1B0020F0B500291A
:1024E00015DD0E4B0D271A680D4B0E4CD3185D42AF
:1024F0006B41451820215B001E5F0478A64207D07F
:1025000093691942FCD101301460A842F5D1F0BDA5
:1025100093691942FCD11760F2E7C046E020002021
:102520000080FCBFDC200020204B70B504000D1E95
:102530001E682ADD002010211D4B013C1A6893699A
:10254000194214D1013093691942FCD11368235404
:102550008542F4D1002E08D050239363516B183B71
:102560000B4014498C466244136028000CE0002E96
:1025700008D050239363516B183B0B400D498C4698
:102580006244136000280DD070BD002E0AD0502286
:10259000074B1B689A63596B183A0A4005498C46E9
:1025A00063441A6003204042EEE7C046141B00203B
:1025B000E020002034100000064B10B51B68002BF3
:1025C00006D00021044A12689163044A10689847B3
:1025D00010BDC046141B0020E02000201C1B002062
:1025E0000822034B19688B691A42FCD17047C04618
:1025F000E0200020F8B51A4F1A4B3A680500D318AE
:1026000058424341184E14331C003368002D02D049
:10261000002B0FD0F8BD002BFCD0002120009563CB
:10262000FEF7FCF920001149FEF758FB104B35600E
:102630001D60EFE70E4B200019600C493560FEF776
:1026400029FA01212000FEF7E9F950223B689A633C
:10265000596B183A0A4007498C4663441A60D9E717
:10266000E02000200080FCBF141B0020B9250010D2
:102670001C1B0020341000000D4B10B51B780D4BB7
:102680000D4C1B780D4B02211B780D4B0020236055
:10269000FEF7AAF802210120FEF7A6F8E121206842
:1026A0004902FFF729F901210648FFF78DFE10BD09
:1026B0001457001010570010E02000200C57001095
:1026C00000400340201000207047C0460022014B0C
:1026D0001A707047FA2000204B790020FF2B0BD195
:1026E0008B79002B08D1CB79012B05D1082A03D98E
:1026F000024B8A7809301A707047C046FA200020D1
:102700000120704710B5012901D0012010BD1349E7
:102710005379107909781B02034300209942F5D1BF
:102720005378012B08D0022BF0D100206422002125
:10273000FFF7B8FA0120E9E7D37891781B02194333
:10274000DB0507D54A0A100001231A407E331940E1
:10275000FFF730FB01204A0A4042F5E7FA2000204B
:10276000004870475455001070B505001400012052
:10277000012909D153780020012B05D16379127901
:102780001B021343072B00D070BD21002800024A12
:102790009F3301F049FAF7E7AC54001001230370AE
:1027A000004870478C5400104B780A781B02134382
:1027B0008A7810B512041A43CB781B06134396226D
:1027C000D200934200D010BD0022012011004042EF
:1027D000FFF7F0FA024B1860024B19607047C046D1
:1027E000181B0020201B002010B5024B1878FEF7A4
:1027F00033F910BDFB200020154B70B51A68002A74
:1028000022D0EFF3108172B610680028FCD0BFF31D
:102810005F8F00200F4A596010701B68BFF35F8FF5
:10282000186081F31088002400250B4E3078FEF7E5
:1028300007F9002804D1002400252900200070BDDC
:102840003078FEF709F9F8E7FA240025A400ECE750
:10285000AC1F0020FC200020FB20002070B50400ED
:1028600000200E0001F0F8FA002836D0002001F018
:102870000BFB002831D0FEF7F1FF0023184A121895
:102880004B41802109068B4216D2164D280002F0DA
:1028900047FB002821D0002001F0DEFA00280FD1EC
:1028A00001200021404200F0F3FC03246442280090
:1028B00002F00EFB200070BD01220B4B5242E4E7F8
:1028C000002001F0E1FA0028EAD0210032000020C7
:1028D00001F0E6FA041EEAD1E7E703246442E9E7DF
:1028E00040420F00D4200020FFFFFF7F10B5FEF70D
:1028F000B5FF00230E4A12184B41802109068B4276
:1029000002D301220B4B52420B4C200002F008FB79
:1029100000280CD001200021404200F0B9FC00202A
:1029200001F00AFB0028F5D1200002F0D1FA10BD19
:1029300040420F00FFFFFF7FD4200020F8B5DE46A5
:10294000574680B505000C00FEF788FF0023374A84
:1029500012184B41802109068B4202D30122344BCD
:102960005242344908008A4602F0DAFA002803D1BC
:10297000C0BCBB46B246F8BD002001F06DFA00288D
:102980004AD00026002C43DD2B4B9B4614E0A919AE
:10299000002001F00DFB070001200021404200F063
:1029A00077FC002001F0C8FAFEF758FF224BF61919
:1029B00018605960B4422BDD002001F019FBA71B01
:1029C0000200B84200DD3A00002AE0D101200021D7
:1029D000404200F05DFC002001F0AEFA002001F062
:1029E0003BFA002814D0002001F002FB0028E1D1BE
:1029F000FEF734FF5B460F001A685B6800218446CF
:102A00000E4812184B419F4202D8D3D19445D1D9D8
:102A1000504602F05DFAABE700200021064B18603B
:102A20005960504602F054FAA2E7C04640420F00F7
:102A3000FFFFFF7FD4200020F811002020A1070015
:102A400030B52B4C85B00021200002F051FA00284F
:102A50001CD1284B1A68002A16D0EFF3108172B6E9
:102A600010680028FCD0BFF35F8F01242248596012
:102A700002781B68D2B20470BFF35F8F0020186029
:102A800081F31088002A17D005B030BD0120002145
:102A9000404200F0FDFB002001F0F6F905002000A7
:102AA00002F016FA002DEFD0144B1B68002BEBD070
:102AB000134A10689847E7E7FEF7C4FC0400FEF7E6
:102AC000CDFEFA220023920012184B418021090604
:102AD0008B4202D301220B4B524201210291002171
:102AE0000191094920000091FEF7B0FCCCE7C046F7
:102AF000D4200020AC1F0020FC200020181B002048
:102B0000201B0020FFFFFF7FF9270010D02310B506
:102B10001B0684B01C68FEF795FCFEF793FDA042EF
:102B200002D0002004B010BD294B1B7801F06AFDD3
:102B300028480368002B47D00120FEF713FAFF2333
:102B4000254C264920701840FDF7A4FF207801216C
:102B5000FDF764FF0520FDF787FF002826D1082236
:102B600000211F48FFF716FBFEF76CFC0400FEF780
:102B700075FEFA220023920012184B4180210906AB
:102B80008B4202D30122174B5242012102910021B4
:102B90000191154920000091FEF758FC0028C0DB88
:102BA00012480121FFF710FC0120BBE70120FDF7CF
:102BB00003FF0B4B01001800FEF736FA0022052038
:102BC0000B49FDF791FFEBE7FEF712FAB4E7C046B9
:102BD00018570010D4200020FB200020412A0010AC
:102BE000AC1F0020FFFFFF7FF927001038100020E6
:102BF000E927001000487047F05500100048704762
:102C00009C55001010B5040017480378002B20D005
:102C1000002C06D1154B16484380063BFF3B038032
:102C200010BD052C19D8134BA400E05812490123FC
:102C3000013804E001330A800231142B0FD0C25C4A
:102C4000002AF7D1C022DBB25B0092000848134390
:102C5000E5E7112100F01AF8DAE70020E0E7CA23DF
:102C600003489B00DBE7C046E42000200904000085
:102C7000541B002084550010561B002010B502483C
:102C800000F0D8F810BDC046C41F002030B54B1E60
:102C9000012900D1A7E0664A11780D092C003034D3
:102CA0009F2900D9A2E00470012B00D1BEE00F21C2
:102CB000147821400C003034092900D998E0447080
:102CC000022B00D1B2E054782509290030319F2C25
:102CD00000D990E08170032B00D1A7E00F212140A3
:102CE0000C003034092900D987E0C470042B00D1CE
:102CF0009CE094782509290030319F2C00D97FE091
:102D00000171052B00D191E00F2121400C003034DE
:102D1000092900D976E04471062B00D186E0D478E9
:102D20002509290030319F2C00D96EE08171072BD5
:102D300000D17BE00F2121400C003034092966D8F6
:102D4000C471082B00D171E01479250929003031B4
:102D50009F2C5FD80172092B68D00F2121400C00F5
:102D60003034092958D844720A2B5FD05479250988
:102D7000290030319F2C52D881720B2B56D00F2155
:102D800021400C00303409294BD8C4720C2B4DD093
:102D900094792509290030319F2C00D9073101731E
:102DA0000D2B43D00F2121400C003034092901D9CB
:102DB00037310C0044730E2B38D0D1790C09220026
:102DC00030329F2900D9073282730F2B2ED00F2269
:102DD0000A4011003731092A01D830321100C1737D
:102DE000102B23D010300023037030BD07345AE776
:102DF00037310C0063E707316CE737310C0074E7BB
:102E000007317DE737310C0085E707318EE7373131
:102E10000C0095E707319DE737310C00A3E7073138
:102E2000AAE737310C00C4720C2BB1D1C018DAE715
:102E3000C41F002010B588B004000D220021684690
:102E4000FFF7A8F90D22002104A8FFF7A3F94B23EF
:102E50006A466846137004A90D2202F031F8152164
:102E6000082220006944FFF79BF908B010BDC04656
:102E7000F8B500F03BF90C23184DFF22AB67052095
:102E80001749FDF731FE174C402200212000FFF7C3
:102E900081F94027002301262121134A66702783E8
:102EA000A260136063545F316184453963540F4AF3
:102EB0000F496360E2602787A1620B606362E26290
:102EC00002F026F880239B052E64EB649023094AC8
:102ED000EA508022084B5202DA64F8BD000011501B
:102EE000A1040020881B0020840010500001105015
:102EF0008000105010D001000020115010B50121A9
:102F00000520FDF78BFD10BD10B500220021024801
:102F100000F00CF910BDC046A81B0020044B19702E
:102F2000002904D080219023024A8902D1507047A1
:102F3000F6200020002011500B785B0602D14B7860
:102F4000052B00D070478A78014B1A60FAE7C0461B
:102F500000001150F0B5C64600B5CC7888780A79E3
:102F60004B797F21A40701401B02C50913434F0081
:102F7000A20F1400324E7A195201B218907001203B
:102F80006840507000205B055B0DD0701383D476D1
:102F90008046CA00012D33D02A4884468801624405
:102FA0008446B4446046826040461060002933D0B5
:102FB000254AC90090466246414451603F223F3352
:102FC0009343022C00D15B0020487A19016852011A
:102FD000B218D1601E4ACB18036051405A4080237A
:102FE00088465B019A4228D84346A4061C438023A6
:102FF0007F197F01F61972681B062343136011E0E5
:1030000014488446880162448446B444604682621F
:1030100040461060002909D100236D0175196B60CD
:103020000D4BEB60012080BCB846F0BD084AC900DA
:103030009046624641445162C0E7FEF7E5FED3E7A1
:10304000881B00208400105004001050901F0020A6
:1030500000001050800010500001105010B501F019
:1030600057FF10BD10B57F200C0020404000E40940
:10307000110000191A00034B4001C01800F056F867
:10308000012010BD881B00207F23180010B50840C8
:10309000CA090B4203D107497D3B9B1A8B6640004E
:1030A00080188022044B40010021C018120101F059
:1030B0004FFF10BD00201150881B00207F221300FD
:1030C00010B50B400A4200D110BDC9095B005B1866
:1030D00004485B01C018002300220349C37001F0BB
:1030E00037FFF1E7881B0020FFF7FFFF80220A4B24
:1030F000520410B51A60094B09491A6010000B6898
:103100009843FBD18022002152010648FFF742F884
:103110000922054B5A6710BD00E0004000F0004056
:1031200008C000400000105000001150002310B5EE
:10313000C3820133828283760161040001F000FFC3
:10314000002804D080219023074A8902D150200012
:1031500001F006FF002802D00123237710BD2000D4
:1031600001F0E6FEFAE7C046002011507047C04665
:103170007047C04600207047002070477047C04627
:103180007047C0467047C0467047C046024B5878EB
:10319000431E9841C0B270472C160020024B18788D
:1031A0004007C00F7047C0462C160020F8B54746B0
:1031B000CE4680B52B4F06003B78FF2B04D0012074
:1031C000C0BCB946B046F8BD002154222648FEF7DF
:1031D000E1FF0022254C264B20001A70FDF708FF66
:1031E000244B1C60244C2000143CFDF70FFF2000F2
:1031F00001F0F2FD214B224D1C60224B002B27D009
:103200002800FFF7CBFA204B2A7818601F490024CA
:1032100089461D490023884610E043461B68620129
:103220009B18002B12D05B68002B0FD098472A7890
:103230000134E4B2511C2300A1420BDBA242ECD8C2
:103240009B1A5B014B445B68002BEFD10020B7E772
:103250002A78DBE730003E70FFF70AFE3000FFF708
:103260004DFEACE76C1000202C160020E415002069
:10327000F720002080160020641000208416002013
:10328000F52000209D27001000130020AC560010F0
:10329000F0B5DE4657464E464546E0B5C84B91B0C0
:1032A00002931B78FF2B00D13EE1C64BC64E9B46D6
:1032B0005F46C64B0DAC0193C54B009335686A69F8
:1032C000EFF3108172B61368002BFCD0BFF35F8F51
:1032D000A9612800210001F0ADFB6A69AB69BFF369
:1032E0005F8F0021116083F31088002800D11BE15B
:1032F0006378082BE2D89B00FB589F466368002B3D
:10330000DCD0A0689847D9E77F222179AF4D0A40E9
:103310005300EB189846C8098044404601233030DA
:1033200005799D430571057903339D430571002A95
:1033300000D100E14346A74A1B7D1278934200D397
:10334000EFE0A54A5B011568ED18002D00D1EBE018
:10335000A36862792078AD69A847AFE79F4A1378E0
:10336000002B00D1E0E01378013BDBB2137013783F
:10337000002BA3D10122954D01212B78042013436A
:103380002B703423EA5C8A43EA54EA5C8243EA54B1
:103390000133EA5C8A43EA54EA5C8243EA542378C4
:1033A00000209B4600F0A0FC602223791A40602A8E
:1033B00000D1EFE0402A00D1F5E0DB06DB0E012B67
:1033C00000D113E1022B00D1C7E0002B00D0E1E0D7
:1033D000202A00D11CE2002A00D0DBE06379092B0F
:1033E00000D9D7E07E4A9B00D3589F46774D2B7873
:1033F000DB0700D462E7FFF7C7FE5FE7019BDB78DE
:10340000DB0700D45AE76068FFF7B2FE56E76F4D5E
:103410002B78DB0700D451E728780007C00FFFF7AF
:10342000B1FE4BE723786A4999468B46694B6A4956
:1034300098468A4639001A7847460023B046002548
:103440004E46894610E053461B686A019B18002BC4
:1034500000D176E0DB68300098473A780135EDB26C
:10346000511C2B008D4244DC9542ECD39B1A5B012E
:103470005B44EFE7237858499946564B8A4698466D
:103480003100BB464E461A78002500234746894640
:103490000FE053461B686A019B18002B55D0DB6870
:1034A000300098473A780135EDB2511C2B008D421F
:1034B00007DC9542EDD39B1A009A5B019446634466
:1034C000EDE7019D542200212800FEF763FE102243
:1034D000FF214448FEF75EFE28002022FF21143021
:1034E0004E465F46FEF756FE00F0F4FBFFF748FE3F
:1034F000E4E6364D542200212800FEF74BFE102250
:10350000FF21281DFEF746FE28002022FF2114304F
:1035100046464F46FEF73EFE00F0DCFB2379AB70DB
:10352000CCE6501C984213DA11B0F0BCBB46B24650
:10353000A946A046F0BDA3686279207800F0E8FBB8
:10354000BCE646464F46214DE6E74E465F46CBE792
:103550001F4D9B1A5B015D19FAE67023217A0B421D
:1035600018D1C80982460F330B405B0098461948B2
:10357000EB1853441B7D00789946834266D2164867
:103580005B01006881469944002A00D15FE14B4607
:10359000002B68D120780021FFF776FD802120786C
:1035A000FFF772FD8AE6104800F09EFB01215846A5
:1035B0000EAAFFF7D9F8002800D07FE6EAE7C04658
:1035C0006C10002004560010841600202C160020D9
:1035D000AC560010F520002000130020F72000203A
:1035E000285600103016002069270010237A0F2B70
:1035F000D0D8CF4AEB181B791578AB423ED3691C63
:103600009942C7DB5D1BCB4B6D01ED18686900F07B
:103610006BFB012158466B690EAA9847002800D021
:103620004CE66022150023791D401A42B2D163791D
:103630000A3B012BAED800F057FB63790A2B00D16F
:1036400099E158460EA900F0D9FA37E6431C4B45DC
:1036500000DAF7E04B461B1A5B019946B5488144F6
:10366000002A00D1F3E04B46586900F03DFB4B4681
:10367000012158465B690EAA98479CE7AE4A5B0158
:103680001568ED18002DC1D184E7A37999466B78B0
:103690009945D6D06B78002B00D033E14B466B7048
:1036A000002B00D12BE148460138C0B2FFF7A6FA43
:1036B000002800D17EE143780793022B00D079E106
:1036C0000122C179B1468B11491113400A403021C2
:1036D00012015B0113432A78A8468A4313432B70D7
:1036E00009239A4682445646BA46C37882781B021A
:1036F0001343C31805938E4B04938E4B08938E4B44
:1037000009938E4B0A93059BB34200D855E1737819
:1037100001220B2B03D13378F278F6187378042B3F
:1037200000D044E1059B00279B1B9BB20693049BA2
:103730000B921D78002303931BE0099A7B01156807
:10374000ED18002D00D132E1310058462B69069A60
:1037500098478446082803D9069A824200D313E189
:10376000049B01371D78FFB26B1C03979F4200DD5D
:103770001DE1BD42E1D8039B5D1B089B6D019C468A
:103780006544E1E76B780CAA0232137058460123B6
:103790000EA900F049FA91E5E3881A0AD8B20F2A77
:1037A00000D9F7E666499300CB589F460EA800F073
:1037B000A1FA5846A179FFF7A7FB02222B78134301
:1037C0002B707BE5E388012B00D0E3E608222B7801
:1037D000584693430EA92B7000F010FA6EE50220B4
:1037E00029780CAB9A1C8B068908DB0F01400B4330
:1037F0001380584602230EA900F016FA5EE5E3880E
:10380000012B00D0C6E608222B7813432B7018E753
:10381000237A0F2B00D9BDE6EB181D79444B1B789A
:103820009D4228D2444B6D011B685D19002D00D1CB
:10383000B0E6686900F058FA012158466B690EAA93
:103840009847B8E6002A00D0A4E60023994662799A
:103850000220130003928343012B15D0002A00D0CD
:1038600098E62B004344534430331B790CAA9B0742
:10387000DB0F0232BCE75A1CAA4200DA8AE6ED1AD4
:103880002C4B6D01ED18D4E7E388002B12D1029B7D
:103890001878039B012B23D0FFF7F6FB4346022148
:1038A000EB18534430331A790A4301211A711A79FB
:1038B0000A431A714B46002B00D1FFE4586900F00F
:1038C00013FA4B4601215B690EAA5846984700201F
:1038D00000F00AFA3523EB5CDB0700D5EEE4B0E636
:1038E000FFF7ECFB43460221EB18534430331A79BF
:1038F0008A431A711A7903998A431A71DAE7FFF732
:103900003FFC9EE600215846FFF708FB5846FFF7AC
:10391000A5FBAB78074903930491054B06499846EC
:103920001A780591002329001D008A461BE0C04635
:10393000F5200020AC560010001300204016002097
:1039400050560010059B6A011B689B18002B4DD038
:10395000DB685846984743461A780135EDB2511C4A
:103960002B008D422EDC9542ECD39B1A049A5B010E
:1039700094466344ECE70CAB9A1C584601230EA90D
:10398000157000F051F999E40B9A012A4FD0002AE2
:103990003CD00023B07804E00133DBB20F719342D6
:1039A00034D2C118C9B241440D79FF2DF4D04E462E
:1039B0004546574600236B70ECE54E465746FFF7E9
:1039C000DDFB3EE65546542200212800FEF7E2FBCF
:1039D0001022FF21281DFEF7DDFB28002022FF21F9
:1039E0001430FEF7D7FB039BAB7057E65546FAE75A
:1039F000FEF7B6FE021E00D1CCE5D37891781B020B
:103A00000B4358460EA900F00FF9D4E565463B007C
:103A10002A0031000A9800F07DFEAC46049B039A10
:103A20001B7866440133934200DB6CE6BFE7174B1B
:103A300029699942ADD1079AABE7FFF79BFB021EBC
:103A400000D1A7E5584613780EA900F0EDF8B2E5CD
:103A50002189FFF7D7F8021EF4D19BE5022A0FD087
:103A6000FFF78AFB021EC8D194E5FFF7C3F8021ED8
:103A700000D18FE5122358460EA900F0D5F89AE53B
:103A8000FFF7BCF8021EB8D184E5C046054100101E
:103A9000F8B557464E46DE4645460C00E0B51600E2
:103AA0001F00002A3CD01F4B00259A4670239946E0
:103AB0001D4B9B4617E05B462000997800F0ECFD1B
:103AC00000281FD021004046FFF744FA002819D0F3
:103AD000A378DA09012A1CD00A9A013513702378D9
:103AE000E418B5421CDA6378052B0BD1E3789B0709
:103AF0009B0FBB4206D153464A461B789846A37893
:103B00001A42D8D00020F0BCBB46B246A946A04617
:103B1000F8BD0B9A013513702378E418B542E2DB47
:103B20000120F0E76C1000202C160020702270B5E8
:103B3000094B0C001D788B781A4201D0002070BD13
:103B4000064B2000997800F0A7FD0028F6D0210050
:103B50002800FFF7FFF9F2E76C1000202C16002078
:103B60000B007F2010B51840DB0934334000044AB5
:103B7000C018044B1168C01800F04AFD10BDC046C3
:103B8000801600202C1600200B007F2010B5184056
:103B9000DB0934334000044AC018044B1168C018D4
:103BA00000F05EFD10BDC046801600202C160020DF
:103BB00070B57F240F480C4064000419CD096419C6
:103BC00030342079C00701D5002070BD0126257949
:103BD0000948354300782571FFF744FA0028F4D1ED
:103BE0000122237993432371237903329343237171
:103BF000EAE7C0462C1600206C10002070B5094C76
:103C00000600082220000D00FEF7CAFA00238021DA
:103C1000E360A3602B783000994300220023FFF774
:103C2000C7FF70BDD0150020F8B5CE464746904678
:103C3000264E80B58146082230000D001F00FEF799
:103C4000AFFA4346B3600023F381EC79AB792402E9
:103C50001C43231CBC4200D93B1C9FB2B381002CE7
:103C60000ED0002F18D04346002B2CD03B1C402FE9
:103C70001BD89FB233787F2B1CD80021144A0FE049
:103C800080212B780022994348460023FFF790FFBC
:103C9000C0BCB946B046F8BD7F23002231789943B5
:103CA0003B004846FFF784FFF2E740239FB233789A
:103CB0007F2BE2D9064C3A0041462000FEF770FA0D
:103CC00080212200ECE70020E2E7C046D01500206A
:103CD000EC15002010B5142200210248FEF75AFA14
:103CE00010BDC046D0150020014B18617047C0467A
:103CF000D015002010B5054C010008222000FEF769
:103D00004FFA0023A360E36010BDC046D015002029
:103D100070B5384C1D0023780600DA09C9098A42BB
:103D200010D00020002D00D070BD21003000FFF722
:103D300003F92369002B03D02200032130009847A8
:103D40000120F1E7A0687F2B05D8002834D02A0095
:103D50002949FEF725FAE289A1685219E38892B24F
:103D60004919E281A160934214D03F2D12D9A38951
:103D7000981A051C80B240282AD82078ADB27F2836
:103D800028D800219A4232D01B4A2B003000FFF77E
:103D90000FFFC9E72369002B05D022000221300064
:103DA000984700280AD080212378002299433000C8
:103DB0000023FFF7FDFEB7E70020B5E70021300044
:103DC000FFF762F930008021FFF75EF90120ABE7D1
:103DD0004025D2E79A4207D0074C2A002000FEF780
:103DE000DFF980212200D0E780210022CDE70022E8
:103DF000CBE7C046D0150020EC15002070B50400BC
:103E0000FFF7C4F9002800D170BDFFF7C7F90028FB
:103E1000FAD1E378002BF7D025001035280000F008
:103E2000F3FD3F28F0D90020E178FFF799FE002844
:103E3000EAD0280000F0E8FD3F2808D992239B0033
:103E4000E218E17840230020FFF7B2FEDCE7E178DA
:103E50000020FFF799FED7E710B50400FFF796F9A9
:103E6000002801D1002010BDFFF798F90028F9D1F2
:103E7000B22292006243034B01309B181B79184019
:103E8000F1E7C04608130020B2239B00434310B55E
:103E90000248181800F09AFD10BDC0461813002003
:103EA000F0B5B226B60046433500C6468023204F03
:103EB0001035040000B57D195B029A4200D31D4AFB
:103EC000280092B200F004FE8046FFF75FF9002858
:103ED00003D1404680BCB846F0BDFFF75FF900282B
:103EE000F7D1B2239B005C433C19E378002BF0D060
:103EF000280000F089FD3F28EBD90020E178FFF78A
:103F00002FFE0028E5D0280000F07EFD3F280AD9CA
:103F100092239B009C4666444023E178BA19002016
:103F2000FFF746FED5E7E1780020FFF72DFED0E74A
:103F300008130020FFFF0000F8B50400FFF726F982
:103F4000002801D10020F8BDFFF728F90028F9D199
:103F5000B2239B005C432500144E2435AD19280084
:103F600000F034FD0028EDD037190020B978FFF7B4
:103F7000F7FD0028E6D0A2239B009C466444A419C8
:103F800021002800402200F0A3FDB978051E08D0CA
:103F9000030022000020FFF70BFE0028D2D02800EB
:103FA000D1E70020FFF7F0FDCCE7C0460813002062
:103FB00070B5B224A40044430B4B0500E4188023E1
:103FC0005B029A4200D3094A200092B200F048FEF8
:103FD0000600200000F0FAFC3F2801D8300070BD38
:103FE0002800FFF7A9FFF9E72C130020FFFF0000CE
:103FF000B2239B00434310B50248181800F004FD9B
:1040000010BDC0462C130020B222F0B500251B4C79
:1040100083B0002120009200FEF7BCF8184B8026E8
:104020001D70FF236371E1235B02A360210008235D
:1040300020007600A373320038310095073B103022
:1040400000F08EFC21000123200039313200FF31C5
:104050000093243000F084FC8E239B00E718380086
:10406000FCF7C6FF90239B00E6183000FCF7C0FF6A
:10407000E56127622663656303B0F0BD0813002085
:10408000041300200B4B196B00290AD01A6A002A6E
:104090000DD000221A621A63DA6100225A630120ED
:1040A00070471A6A002AFAD0D9611962F7E71A63D1
:1040B000F3E7C0460813002070B50F4C052200211D
:1040C0002000FEF767F80D4D2B78DA0707D50C4C6A
:1040D0009B070CD50121200000F09EFE70BD200042
:1040E000103000F079FE2B78054C9B07F2D42000AD
:1040F00000F072FEEEE7C046081300200413002013
:104100002C130020F0B5C64600B54B79060082B0EE
:10411000022B02D18B79022B05D00025280002B09A
:1041200080BCB846F0BD214FBB78002BF5D18B7811
:1041300009253B700C780C196378242B0BD1082AC5
:1041400002D821E0AA421FD32378E4185D196378CE
:10415000ADB2242BF6D0052B1AD0042B14D16379E1
:104160000A2B11D1237821009846114B022201938A
:1041700001330093300002234144FFF789FC0028FB
:10418000CBD00E354544ADB23800FFF737FEC5E75A
:1041900021003000FFF7CAFC0028BED0A3787B7056
:1041A00023785D19E4186378ADB2D6E708130020D0
:1041B0000A130020F8B5602314001278050013409C
:1041C0000020202B12D12F4A6379277916781B0201
:1041D0003B439E420AD16378222B1AD007D8202B6A
:1041E0003CD0212B02D1012930D00120F8BD232B56
:1041F000FCD1012940D00329F7D1234B002BF4D067
:10420000E178A37809020020194300E000BF0120F3
:10421000ECE7012930D00329E7D101252E00A3784E
:10422000E478023924021C43147126402432100021
:10423000714000F0F1FD154B002BD6D06208002034
:1042400031002A4000E000BF0120CFE70723210012
:1042500028000F4AFFF7E8FC0120C7E70129F5D045
:104260000329C2D10B4B002BBFD008320020110014
:10427000FEF79AFA0120B9E721002800FFF7BEFCFB
:104280000120B3E708130020000000000000000038
:1042900010130020A9270010F0B54F464646D64619
:1042A000374DC0B5EA781F0080460C00AB788A42D3
:1042B0003BD08B4210D00020E0BCBA46B146A846A5
:1042C000F0BD304B002B04D02F4800F095FB0028A8
:1042D00053D02800FFF792FDAB78A34201D0012014
:1042E000EAE72A4B002B02D0002000E000BF0020AC
:1042F000FFF722FE0028F2D1254C200000F066FBDB
:104300000028ECD1002FEAD0BF06E8D1243C40467B
:10431000A178FFF725FC0028E1D0002300224046C9
:10432000A178FFF745FC0120C6E792239B00EE1819
:1043300010239A46AA4431005046BAB200F090FCCD
:10434000144B002BBDD06B79FF2BBAD0002FB8D007
:10435000F219914603E00136B145B2D06B7932785B
:104360009A42F8D1504600F047FB0028F3D153465B
:10437000103B597900E000BFEDE700E000BFA8E77F
:1043800008130020000000001813002000000000A7
:104390002C13002000000000B32270B5144C84B030
:1043A000002120009200FDF7F5FE231D029323005B
:1043B000200080254026CD336D00FF33A9300093C7
:1043C00000220023002103960195FF3000F0BCF984
:1043D000230020004433A83402930122002300214B
:1043E000039601950094843000F0AEF904B070BDDE
:1043F0004817002010B5054C200000F0DBF9200024
:104400002538FF3800F0D6F9012010BDF018002043
:1044100010B5064C00232000B130FF30237000F0AF
:10442000DBFC20008C3000F0D7FC10BD48170020CA
:10443000F0B557464546DE464E46E0B54B798046D8
:104440000F0083B0FF2B28D1454B0C789946AA2347
:104450004946FF33CB5C002B1FD18533CE5C002E49
:104460001BD1BB783C190B703B79002B12D0D823A1
:104470005B004B449A468C234B449B46A5186378BB
:10448000052B05D111E02378E4186378052B0CD0B7
:10449000A542F8D8E01B80B200E0002003B0F0BCD9
:1044A000BB46B246A946A046F0BDA542F2D92100BE
:1044B0004046FFF73BFB0028EFD0A3780136F6B269
:1044C000DB09012B29D0504600F086FCAA2349467F
:1044D000A278FF33CA54637922791B021343214A1D
:1044E0005B0594465B0DD42163445A4253414A46CE
:1044F00002204900525C5B00824313434A465354F6
:1045000051464046083900F0BDF90028C5D023784F
:10451000E4183B79B342B2D8BCE7584600F05CFCE3
:104520005A468523A1788C3AD154637921791B02AC
:104530000B430C495B058C465B0D634459424B4170
:1045400084215B0001930223505C9843019B034349
:10455000535459460020083900F062F9D7E7C046A5
:104560004817002000FEFFFFF8B5AA2506001F48E7
:10457000FF35455D1F008D4215D08523C35C0020AB
:104580008B420FD11A4B002B04D039040020090CA8
:1045900000E000BF174C3000210000F041F9002876
:1045A00014D00120F8BDDA235B00C35A002B14D1CC
:1045B000114B002B04D000201049BAB200E000BF1C
:1045C00030000F4900F05EF90120EBE73A002100CE
:1045D000300000F0F1F80120E4E7D6235B00C15879
:1045E000B130BAB2FF3000F03BFBE1E748170020E2
:1045F00000000000CC170020000000004C17002035
:10460000F018002010B50020FEF7D0FD10BDC04608
:10461000037870B5DB0704000E00DD0F002B17D107
:1046200003785B0701D5280070BD012130004942A5
:1046300000F066FC2378DB07DD0F002B0AD123781E
:104640005B0708D40422237801251343237002E07A
:104650000025E8E70025300000F03AFCE3E7C0461B
:1046600070B50C00012106004942200000F048FC12
:1046700033785B07DD0F002B04DB200000F028FC03
:10468000280070BD3378DB0704D4042233789343C9
:104690003370F2E70025F0E7437902791B021343F8
:1046A000C2785B0592075B0D920F022A1DD0032A88
:1046B0000CD00020012A08D102394A425141124A45
:1046C0009446614499424041C0B2704702394A1E43
:1046D00091410E4A494211408022D2009446002066
:1046E000614499424041C0B2EFE7022905D0002061
:1046F00040229A424041C0B2E7E7054A9818434237
:104700005841C0B2E1E7C046FF03000040FCFFFF94
:1047100000FEFFFF8A1870B5914207D27F264C78C1
:10472000052C04D00C7809198A42F8D870BD3400E1
:104730008D782C4064000419ED0963550C78091933
:104740008A42ECD8F2E7C046F0B5C64600B582B062
:10475000150008AA40CA040017880BAA1288012075
:1047600090460A00217802408143200011432170C5
:104770003A00009331000123083000F0F1F8002ED8
:1047800001D0002F08D10A9B01206360434663805B
:1047900002B080BCB846F0BD26001C363000FCF7E5
:1047A00027FC0023002D01D0330000266361A661A1
:1047B000E9E7C04601207047F8B502240B780700EE
:1047C0001C4063425C41144B64421C40134B080084
:1047D0009C4608300D001600644400F0F7F80028ED
:1047E00007D1002E05D0344203D101242B781C427E
:1047F00001D00020F8BD38006978FFF7B1F9002832
:10480000F7D02B781C42F4D10023002238006978BD
:10481000FFF7CEF9EEE7C04640FEFFFFFF010000C4
:10482000F8B50D000835060028000C0000F0CEF8A1
:10483000002803D0012723781F4201D00020F8BDB3
:1048400030006178FFF78CF90028F7D028006288E3
:10485000616800F03DF92378051E0BD01F42EDD1B1
:104860000300626830006178FFF7A2F90028E5D004
:104870002800E4E71F42E1D130006178FFF784F9B6
:10488000DCE7C046F8B5CE46474680B58A890500C4
:104890000C000B78002A07D101261E423FD00020D1
:1048A000C0BCB946B046F8BD9B0734D5FE23802670
:1048B0001B029946B60027000837380000F0A4F81C
:1048C0008642ECD80122237890461A42E7D128008C
:1048D0006178FFF745F90028E1D0380000F094F83E
:1048E000864231D84146237862881942D7D14B4657
:1048F0001840061C904200D9161CB6B200226178FE
:10490000002E00D0626833002800FFF751F900281C
:10491000C5D03000C4E7114B40269946CBE7497813
:10492000FFF71EF90028BAD0227863881642B6D164
:1049300000226178002B00D062682800FFF738F968
:104940000028ACD06088ABE7424623781A42A6D153
:1049500028006178FFF718F9A1E7C046C0FF000002
:10496000F0B5C64600B5040006A805788020884644
:1049700017001E000002824226D8E068002803D0FB
:104980000121494200F0BCFA2069002803D001212E
:10499000494200F0B5FA4346236073045B0CED0313
:1049A0001D430023E0686381A780E5802381002800
:1049B00001D000F08DFA2069002801D000F088FABB
:1049C000012080BCB846F0BD0020FAE710B504898C
:1049D00041898288A3B288B28C4207D31B1A9BB24A
:1049E000101C9A4200D9181C80B210BD5100091A3F
:1049F0005B189BB2F4E7C04603894089181A43420A
:104A00005841C0B27047C04610B5048941898288B8
:104A1000A3B288B28C4207D31B1A9BB200209A42E1
:104A200001D9D21A90B210BD5100091A5B189BB27D
:104A3000F4E7C04670B5040000690E00002803D0FA
:104A40000121494200F05CFA25896089A288A9B257
:104A500083B285422CD3CD1AADB2002D2ED0AA42FE
:104A600008D2914230D3891A8BB263819A4203D81B
:104A70009B1A9BB29A42FBD9E28821685204520CDD
:104A800053433000C918FDF78BFB63890125591C7E
:104A900089B2A2888B4213D900215200891A89B2A7
:104AA00020696181002801D000F012FA280070BD51
:104AB0005500ED1A4D19ADB2002DD0D1618989B2E2
:104AC00052009142ECDBE9E789188BB26381CDE7B4
:104AD000F0B546464F46D646C0B506000069894641
:104AE0009046002803D00121494200F009FA31899B
:104AF0007289B5888BB294B2914254D31F1BBFB256
:104B0000002F4AD0BD4205D2AB4251D25B199CB2B4
:104B10002F0074814346B8453DD89FB2A54203D8C3
:104B2000641BA4B2A542FBD9F28831685204520C2E
:104B3000904662432B1B9BB2891842469F4225D95F
:104B400053439BB21A0048469A46FDF729FB434659
:104B500048467D1B64195C4331685044A2B2FDF79E
:104B60001FFB7189B588CB199BB26A00994216D98F
:104B70009B1A9BB230697381002801D000F0A8F91C
:104B80003800E0BCBA46B146A846F0BD48467A4374
:104B9000FDF706FBE5E73B1CBFE773899BB26A00A4
:104BA0009342E7DBE4E76F003F1BDF19BFB2A7E7E3
:104BB0005B1B9CB2ACE7C046F8B50400C0680E00B1
:104BC000002803D00121494200F09AF92589208963
:104BD0006189A288ADB283B28FB2884229D3DB1B30
:104BE0009BB29A4209D8E779FF0906D1E06800280C
:104BF00001D000F06DF93800F8BD95421ED32B00AE
:104C00009B1A9BB29342FBD2E28820685204520C5A
:104C100053433100C018FDF7C3FA6B1C9BB2A28846
:104C20009D4218D9002352009B1A9BB20127238171
:104C3000DCE75100C91B5B189BB2D2E72B00E2886E
:104C400020685204520C53433100C018FDF7A8FAF3
:104C50000135A288ABB252009342E7DBE4E7C046DD
:104C6000F0B557464546DE464E46E0B51400050011
:104C70000F0083B0002A75D0C068002803D001213E
:104C8000494200F03DF92E89E9796A89AB88B6B2CC
:104C900092B2C90945D1964200D36DE059008A1AF3
:104CA000B21892B2002189469A4234D29A1A111C43
:104CB00092B2A24200D9211C8AB29146EA885204DB
:104CC000520C90464A46B21892B292464A46D21ABE
:104CD00092B2934634009E4203D3E41AA4B29C429B
:104CE000FBD24246624328681B1B9BB28018424697
:104CF0004B4554D34B4639005A43FDF751FAAB8824
:104D00005B00564501D89A4503DB5246D31A9BB245
:104D10009A4653462B81E868002825D000F0D8F841
:104D200022E0E9884904490C88469C4227D29642F1
:104D300047D3B11A89B28C465800E11A89B28B4622
:104D400061460919814208DBD11889B20E1BB6B23F
:104D50008A46B2423BD9361AB6B2A21992B29246EC
:104D6000A146B7E700239946484603B0F0BCBB46CE
:104D7000B246A946A046F0BDB21A92B292E700210F
:104D80008946002BC7D04146E41A4C431600D1187F
:104D9000002289B28A46994693463F199AE75343BF
:104DA0009BB21A0039005C440193FDF7F9F94146C2
:104DB00022004A43019B286892B2F918FDF7F0F9E6
:104DC0009DE75800811A711889B28C46B5E7A14653
:104DD000B04200DD7EE7BEE710B50400C0680028E1
:104DE00003D00121494200F08BF82069002803D04C
:104DF0000121494200F084F80023E06863812381A7
:104E0000002801D000F064F82069002801D000F0EB
:104E10005FF8012010BDC04670B50400C0680D00E9
:104E2000002803D00121494200F06AF820690028D7
:104E300003D00121494200F063F87F21E379ED01BD
:104E40001940E0682943E171002801D000F040F8E2
:104E50002069002801D000F03BF8012070BDC04659
:104E600010B583070AD00300032102E001330B428F
:104E700005D01A78002AF9D1181A10BD0300196854
:104E80000C4A0D4C8A188A4322420FD15968094AAC
:104E900004338A188A43224208D15968054A0433E8
:104EA0008A188A432242F1D000E001331A78002A9E
:104EB000FBD1E1E7FFFEFEFE80808080F8B5C046B2
:104EC00001B40248844601BC604700BFC90200200B
:104ED00001B40248844601BC604700BF2D02002097
:104EE00001B40248844601BC604700BF110F002096
:104EF00001B40248844601BC604700BFC1000020E5
:104F000001B40248844601BC604700BF9D010020F7
:104F100001B40248844601BC604700BF89030020F9
:104F200001B40248844601BC604700BF0101002073
:104F300001B40248844601BC604700BF810C0020D8
:104F400001B40248844601BC604700BFC90B002081
:104F500001B40248844601BC604700BF310C002008
:104F600001B40248844601BC604700BFF10B002039
:104F70003D1E0010691E0010B51F00108521001095
:104F80001D20001029210010DD1E0010851E0010BC
:104F9000A51E0010B91E0010A10F0010C11E0010A8
:104FA00069130010051E0010F9090010B10200106D
:044FB0007D2C001044
:104FB400436F6E74726F6C65206465204750494F6F
:104FC40020706F7220756D207465636C61646F204E
:104FD4006D617472696369616C202D20477275700C
:104FE4006F203420537562677275706F2033000030
:104FF40053697374656D6120696E696369616C6975
:105004007A61646F210000000A4170657274652042
:10501400756D61207465636C613A200A0A31202D34
:10502400204163696F6E61204C454420766572644B
:10503400650A32202D204163696F6E61204C45441E
:1050440020617A756C0A33202D204163696F6E618B
:10505400204C4544207665726D656C686F0A41206A
:105064002D204163696F6E61204C45447320766541
:10507400726465206520617A756C0A42202D204196
:1050840063696F6E61204C45447320617A756C20AE
:1050940065207665726D656C686F0A43202D20412A
:1050A40063696F6E61204C45447320766572646554
:1050B4002065207665726D656C686F0A44202D202A
:1050C4004163696F6E6120746F646F73206F732026
:1050D4004C4544730A2A202D204163696F6E612078
:1050E4006F2042757A7A65720A0000004C454420AC
:1050F4007665726465206163696F6E61646F000038
:105104004C454420617A756C206163696F6E6164FB
:105114006F0000004C4544207665726D656C686FC5
:10512400206163696F6E61646F0000004C454473D5
:10513400207665726465206520617A756C206163F0
:10514400696F6E61646F73004C45447320617A75B6
:105154006C2065207665726D656C686F206163698B
:105164006F6E61646F7300004C4544732076657202
:1051740064652065207665726D656C686F20616377
:10518400696F6E61646F7300546F646F73206F7323
:10519400204C454473206163696F6E61646F7300D2
:1051A40042757A7A6572206163696F6E61646F001B
:1051B4000A2A2A2A2050414E4943202A2A2A0A0030
:1051C4004E6F207370696E6C6F636B7320617265D0
:1051D40020617661696C61626C6500004E6F2075B8
:1051E4007365722049525173206172652061766142
:1051F400696C61626C650000486172647761726514
:1052040020616C61726D20256420616C726561643B
:105214007920636C61696D656400000048617264A3
:1052240020617373657274006D697373696E6720AE
:10523400646F75626C652066756E6374696F6E0069
:1052440052656C6561736500626F6F74325F7732AB
:105254003571303830000000302E3100322E312EBE
:10526400300000007069636F5F770000436F6E74F5
:10527400726F6C655F4750494F5F5465636C61643E
:105284006F5F4D617472696369616C5F53756267C6
:105294007275706F5F3300004A616E2031392032BD
:1052A400303235005541525420737464696E0000E5
:1052B40055415254207374646F75740055415254AF
:1052C40020737464696E202F207374646F75740086
:1052D40055534220737464696E202F207374646F75
:1052E400757400005261737062657272792050693E
:1052F400000000005069636F00000000426F61729B
:105304006420434443000000526573657400000048
:10531400556E68616E646C65642049525120307822
:1053240025780A0065702025303258207761732073
:10533400616C726561647920617661696C61626C2B
:105344006500000043616E277420636F6E74696E9C
:1053540075652078666572206F6E20696E6163746E
:105364006976652065702025303258009E0700104C
:105374009206001092060010920600109206001089
:1053840092060010920600107C06001080070010A0
:105394006207001092060010920600109206001098
:1053A4009206001092060010920600109206001059
:1053B4009206001092060010920600109206001049
:1053C4009206001092060010340700100607001021
:1053D400D80600109A060010313233413435364273
:1053E400373839432A302344040000000300000006
:1053F4000200000001000000080000000700000097
:10540400060000000500000006005250D3F075426B
:105414004452001006005250E182887F4C52001022
:10542400060052503ABCA9115C52001006005250BA
:10543400ABB360536052001006005250BBFF3CB641
:105444006852001006005250861C0302705200106D
:10545400060052505422A29D9C5200100500525046
:10546400DE65F468D46600100D0A00000600525090
:1054740053B4F4A1C05200100800525012000000AE
:10548400080052509210000000000000C9260010CD
:1054940000000000CD260010D926001005270010BA
:1054A40001270010000000000A00000000000306AD
:1054B400A6000800020002009C00140003005749E3
:1054C4004E55534200000000000000000000800020
:1054D40004000100280044006500760069006300B0
:1054E400650049006E00740065007200660061008A
:1054F40063006500470055004900440000004E0069
:105504007B00620063003700330039003800630019
:1055140031002D0037003300630064002D00340097
:105524006300620037002D00390038006200380043
:105534002D0039003100330061003800660063003B
:10554400610037006200660036007D000000000044
:10555400050F2100011C100500DF60DDD88945C757
:105564004C9CD2659D9E648A9F00000306A60001A0
:10557400000000000600525053B4F4A1D4520010AD
:1055840000000000E8520010F8520010E42000204F
:10559400005300100C530010090254000301008052
:1055A4007D080B000202020000090400000102024F
:1055B400000405240020010524010001042402063E
:1055C40005240600010705810308001009040100F1
:1055D400020A0000000705020240000007058202DB
:1055E4004000000904020000FF000105120110023E
:1055F400EF0201408A2E0A000001010203010000AB
:10560400BC3200102434001074340010FC33001039
:105614000E340010EC3300105C330010083300101B
:10562400FC320010DE370010C4370010943500102F
:10563400FE37001094350010AC3700109837001076
:1056440094350010843700108A3600109435001009
:105654006A3A00105C3A0010503A00109435001079
:10566400943500103A3A00105C3A0010943500105A
:1056740094350010943500109435001094350010C2
:105684009435001094350010F0390010520D0020AC
:10569400520D00209C0D0020BC0D0020000E0020A7
:1056A400120E0020480D00200000000009400010E8
:1056B40085400010B940001005410010B5410010AC
:1056C40099420010000000000000000099430010FF
:1056D400F5430010114400103144001069270010F4
:0856E400694500100000000000
:1056EC000C540010185400102454001030540010A6
:1056FC003C540010485400105454001060540010D6
:10570C00845400107C540010705400107855001014
:10571C0003000068EFF3108C72B60268002AFCD00C
:10572C00BFF35F8F04229A56002A04DB002900D0B5
:10573C000A60002004E0D0220120120612681A71BF
:10574C001B68BFF35F8F00221A608CF310887047C0
:10575C00F0B5C646150000B504001E000268EFF354
:10576C00108172B61368002BFCD0BFF35F8F04233B
:10577C00E356002B2DDB2268BFF35F8F00201060F7
:10578C0081F31088D0221206127852B290469A42B7
:10579C0003D1002080BCB846F0BD00270BE0236885
:1057AC00BFF35F8F1F6081F310882800310000F079
:1057BC0003FF0028EDD12268EFF3108172B6136855
:1057CC00002BFCD0BFF35F8F23797F2BE7D94346A7
:1057DC0002E0D0231B061B6823712368BFF35F8F85
:1057EC0000221A6081F310880120D3E7F0B5C64679
:1057FC0000B50D00040000F0EFFEFA2206000F00C9
:10580C00002328000021920000F0CEFE80233618E1
:10581C004F411B069F4202D30126174F7642D023DD
:10582C001B061B68002598460BE02368BFF35F8FAF
:10583C001D6081F310883000390000F0BDFE002897
:10584C0018D12268EFF3108172B61368002BFCD0CC
:10585C00BFF35F8F23797F2BE7D9434623712368EE
:10586C00BFF35F8F00221A6081F31088012080BC87
:10587C00B846F0BD0020FAE7FFFFFF7F0268EFF3A8
:10588C00108172B61368002BFCD0BFF35F8FFF231F
:10589C0003710368BFF35F8F00221A6081F31088D5
:1058AC0040BF704710B5084C2378002B0AD18023D9
:1058BC00064807495B051A68C25004338B42FAD17B
:1058CC000123237010BDC046F8200020141A0010CC
:1058DC000001001010B5014B984710BD151A00209F
:1058EC00034B1A68C0239B009343024A1360704712
:1058FC000C8001400C900140054B1A6880239B00E2
:10590C005340C02292001340024A13607047C046B5
:10591C000C8001400C9001401423F0B5D6464F4644
:10592C0046469A46814618880433C0B598460E0000
:10593C001B8826491400984753460700188843468D
:10594C0023491B889847534605001888434621492C
:10595C001B8898478046FFF7A5FFB847A847FFF775
:10596C00CBFF221E20D0C02108270220490511E0C0
:10597C00002C14D0131B0D2B20D9002D0AD0230082
:10598C00002A05D00B6E013A337013000136234305
:10599C00002B09D03D008B6A1D401842E8D1002D28
:1059AC00EDD123001343F5D1FFF79AFFC047FFF762
:1059BC0091FFE0BCBA46B146A846F0BD4B461B78F9
:1059CC00013C0B6601239C46E144E8E74946000094
:1059DC0045580000464300000022154B10B59A6054
:1059EC00DA601A615A619A61DA611A625A629A62D1
:1059FC00DA621A635A639A63DA631A645A649A64B1
:105A0C00DA641A655A659A65DA651A665A669A6690
:105A1C00DA661A675A679A67DA67F03292000021E1
:105A2C00044800F0A1FD044B044A1A6010BDC046A6
:105A3C0000001050C81B0020901F00208001105047
:105A4C00F0B557464E464546DE46E0B5254B00259B
:105A5C009F6D012687B0002F23D0234B994601233D
:105A6C009B46224B984601E0202D1AD032002C0088
:105A7C000135B2463A40EDB27600002AF4D04B46DE
:105A8C0052469A655B46640864002B40E418640136
:105A9C004444200000F052FC002809D153469F4397
:105AAC00E2D107B0F0BCBB46B246A946A046F0BD59
:105ABC00E28AA37802A80192002106220630009304
:105ACC0000F052FDE02302A9DB008B80009B019AC1
